{
  "_format": "hh-sol-artifact-1",
  "contractName": "DeFiPilotVault",
  "sourceName": "contracts/DeFiPilotVault.sol",
  "abi": [
    {
      "inputs": [],
      "stateMutability": "nonpayable",
      "type": "constructor"
    },
    {
      "inputs": [
        {
          "internalType": "address",
          "name": "target",
          "type": "address"
        }
      ],
      "name": "AddressEmptyCode",
      "type": "error"
    },
    {
      "inputs": [
        {
          "internalType": "address",
          "name": "implementation",
          "type": "address"
        }
      ],
      "name": "ERC1967InvalidImplementation",
      "type": "error"
    },
    {
      "inputs": [],
      "name": "ERC1967NonPayable",
      "type": "error"
    },
    {
      "inputs": [],
      "name": "EnforcedPause",
      "type": "error"
    },
    {
      "inputs": [],
      "name": "ExpectedPause",
      "type": "error"
    },
    {
      "inputs": [],
      "name": "FailedCall",
      "type": "error"
    },
    {
      "inputs": [],
      "name": "InvalidInitialization",
      "type": "error"
    },
    {
      "inputs": [],
      "name": "NotInitializing",
      "type": "error"
    },
    {
      "inputs": [
        {
          "internalType": "address",
          "name": "owner",
          "type": "address"
        }
      ],
      "name": "OwnableInvalidOwner",
      "type": "error"
    },
    {
      "inputs": [
        {
          "internalType": "address",
          "name": "account",
          "type": "address"
        }
      ],
      "name": "OwnableUnauthorizedAccount",
      "type": "error"
    },
    {
      "inputs": [],
      "name": "ReentrancyGuardReentrantCall",
      "type": "error"
    },
    {
      "inputs": [
        {
          "internalType": "address",
          "name": "token",
          "type": "address"
        }
      ],
      "name": "SafeERC20FailedOperation",
      "type": "error"
    },
    {
      "inputs": [],
      "name": "UUPSUnauthorizedCallContext",
      "type": "error"
    },
    {
      "inputs": [
        {
          "internalType": "bytes32",
          "name": "slot",
          "type": "bytes32"
        }
      ],
      "name": "UUPSUnsupportedProxiableUUID",
      "type": "error"
    },
    {
      "anonymous": false,
      "inputs": [
        {
          "indexed": true,
          "internalType": "address",
          "name": "user",
          "type": "address"
        },
        {
          "indexed": false,
          "internalType": "uint256",
          "name": "amount",
          "type": "uint256"
        }
      ],
      "name": "Deposited",
      "type": "event"
    },
    {
      "anonymous": false,
      "inputs": [
        {
          "indexed": true,
          "internalType": "address",
          "name": "to",
          "type": "address"
        },
        {
          "indexed": false,
          "internalType": "uint256",
          "name": "amount",
          "type": "uint256"
        }
      ],
      "name": "ETHRescued",
      "type": "event"
    },
    {
      "anonymous": false,
      "inputs": [
        {
          "indexed": false,
          "internalType": "uint64",
          "name": "version",
          "type": "uint64"
        }
      ],
      "name": "Initialized",
      "type": "event"
    },
    {
      "anonymous": false,
      "inputs": [
        {
          "indexed": false,
          "internalType": "address",
          "name": "executor",
          "type": "address"
        }
      ],
      "name": "IntentExecutorUpdated",
      "type": "event"
    },
    {
      "anonymous": false,
      "inputs": [
        {
          "indexed": true,
          "internalType": "address",
          "name": "previousOwner",
          "type": "address"
        },
        {
          "indexed": true,
          "internalType": "address",
          "name": "newOwner",
          "type": "address"
        }
      ],
      "name": "OwnershipTransferred",
      "type": "event"
    },
    {
      "anonymous": false,
      "inputs": [
        {
          "indexed": false,
          "internalType": "address",
          "name": "account",
          "type": "address"
        }
      ],
      "name": "Paused",
      "type": "event"
    },
    {
      "anonymous": false,
      "inputs": [
        {
          "indexed": true,
          "internalType": "address",
          "name": "user",
          "type": "address"
        },
        {
          "indexed": false,
          "internalType": "uint256",
          "name": "positionId",
          "type": "uint256"
        },
        {
          "indexed": false,
          "internalType": "uint256",
          "name": "ethReceived",
          "type": "uint256"
        }
      ],
      "name": "PositionClosed",
      "type": "event"
    },
    {
      "anonymous": false,
      "inputs": [
        {
          "indexed": false,
          "internalType": "address",
          "name": "protocol",
          "type": "address"
        },
        {
          "indexed": false,
          "internalType": "bool",
          "name": "status",
          "type": "bool"
        }
      ],
      "name": "ProtocolWhitelisted",
      "type": "event"
    },
    {
      "anonymous": false,
      "inputs": [
        {
          "indexed": true,
          "internalType": "address",
          "name": "protocol",
          "type": "address"
        },
        {
          "indexed": false,
          "internalType": "bytes4",
          "name": "selector",
          "type": "bytes4"
        },
        {
          "indexed": false,
          "internalType": "bool",
          "name": "status",
          "type": "bool"
        }
      ],
      "name": "SelectorAllowed",
      "type": "event"
    },
    {
      "anonymous": false,
      "inputs": [
        {
          "indexed": false,
          "internalType": "bool",
          "name": "enabled",
          "type": "bool"
        }
      ],
      "name": "SelectorCheckToggled",
      "type": "event"
    },
    {
      "anonymous": false,
      "inputs": [
        {
          "indexed": true,
          "internalType": "address",
          "name": "user",
          "type": "address"
        },
        {
          "indexed": false,
          "internalType": "address",
          "name": "protocol",
          "type": "address"
        },
        {
          "indexed": false,
          "internalType": "uint256",
          "name": "amount",
          "type": "uint256"
        }
      ],
      "name": "StrategyExecuted",
      "type": "event"
    },
    {
      "anonymous": false,
      "inputs": [
        {
          "indexed": false,
          "internalType": "address",
          "name": "account",
          "type": "address"
        }
      ],
      "name": "Unpaused",
      "type": "event"
    },
    {
      "anonymous": false,
      "inputs": [
        {
          "indexed": true,
          "internalType": "address",
          "name": "implementation",
          "type": "address"
        }
      ],
      "name": "Upgraded",
      "type": "event"
    },
    {
      "anonymous": false,
      "inputs": [
        {
          "indexed": true,
          "internalType": "address",
          "name": "user",
          "type": "address"
        },
        {
          "indexed": false,
          "internalType": "uint256",
          "name": "amount",
          "type": "uint256"
        }
      ],
      "name": "Withdrawn",
      "type": "event"
    },
    {
      "inputs": [],
      "name": "UPGRADE_INTERFACE_VERSION",
      "outputs": [
        {
          "internalType": "string",
          "name": "",
          "type": "string"
        }
      ],
      "stateMutability": "view",
      "type": "function"
    },
    {
      "inputs": [
        {
          "internalType": "address",
          "name": "",
          "type": "address"
        },
        {
          "internalType": "bytes4",
          "name": "",
          "type": "bytes4"
        }
      ],
      "name": "allowedSelectors",
      "outputs": [
        {
          "internalType": "bool",
          "name": "",
          "type": "bool"
        }
      ],
      "stateMutability": "view",
      "type": "function"
    },
    {
      "inputs": [],
      "name": "deposit",
      "outputs": [],
      "stateMutability": "payable",
      "type": "function"
    },
    {
      "inputs": [
        {
          "internalType": "address",
          "name": "protocol",
          "type": "address"
        }
      ],
      "name": "depositAndExecute",
      "outputs": [],
      "stateMutability": "payable",
      "type": "function"
    },
    {
      "inputs": [
        {
          "internalType": "address",
          "name": "user",
          "type": "address"
        },
        {
          "internalType": "address",
          "name": "protocol",
          "type": "address"
        },
        {
          "internalType": "uint256",
          "name": "amount",
          "type": "uint256"
        },
        {
          "internalType": "bytes",
          "name": "data",
          "type": "bytes"
        }
      ],
      "name": "executeStrategy",
      "outputs": [],
      "stateMutability": "nonpayable",
      "type": "function"
    },
    {
      "inputs": [],
      "name": "getHealthFactor",
      "outputs": [
        {
          "internalType": "uint256",
          "name": "actualBalance",
          "type": "uint256"
        },
        {
          "internalType": "uint256",
          "name": "totalAccounted",
          "type": "uint256"
        },
        {
          "internalType": "bool",
          "name": "healthy",
          "type": "bool"
        }
      ],
      "stateMutability": "view",
      "type": "function"
    },
    {
      "inputs": [
        {
          "internalType": "address",
          "name": "user",
          "type": "address"
        }
      ],
      "name": "getUserBalance",
      "outputs": [
        {
          "internalType": "uint256",
          "name": "",
          "type": "uint256"
        }
      ],
      "stateMutability": "view",
      "type": "function"
    },
    {
      "inputs": [
        {
          "internalType": "address",
          "name": "user",
          "type": "address"
        },
        {
          "internalType": "uint256",
          "name": "posId",
          "type": "uint256"
        }
      ],
      "name": "getUserPosition",
      "outputs": [
        {
          "components": [
            {
              "internalType": "address",
              "name": "protocol",
              "type": "address"
            },
            {
              "internalType": "address",
              "name": "asset",
              "type": "address"
            },
            {
              "internalType": "uint256",
              "name": "amount",
              "type": "uint256"
            },
            {
              "internalType": "address",
              "name": "receivedToken",
              "type": "address"
            },
            {
              "internalType": "uint256",
              "name": "receivedAmount",
              "type": "uint256"
            },
            {
              "internalType": "uint256",
              "name": "timestamp",
              "type": "uint256"
            },
            {
              "internalType": "bool",
              "name": "active",
              "type": "bool"
            }
          ],
          "internalType": "struct DeFiPilotVault.Position",
          "name": "",
          "type": "tuple"
        }
      ],
      "stateMutability": "view",
      "type": "function"
    },
    {
      "inputs": [
        {
          "internalType": "address",
          "name": "user",
          "type": "address"
        }
      ],
      "name": "getUserPositionCount",
      "outputs": [
        {
          "internalType": "uint256",
          "name": "",
          "type": "uint256"
        }
      ],
      "stateMutability": "view",
      "type": "function"
    },
    {
      "inputs": [],
      "name": "initialize",
      "outputs": [],
      "stateMutability": "nonpayable",
      "type": "function"
    },
    {
      "inputs": [],
      "name": "intentExecutor",
      "outputs": [
        {
          "internalType": "address",
          "name": "",
          "type": "address"
        }
      ],
      "stateMutability": "view",
      "type": "function"
    },
    {
      "inputs": [],
      "name": "owner",
      "outputs": [
        {
          "internalType": "address",
          "name": "",
          "type": "address"
        }
      ],
      "stateMutability": "view",
      "type": "function"
    },
    {
      "inputs": [],
      "name": "pause",
      "outputs": [],
      "stateMutability": "nonpayable",
      "type": "function"
    },
    {
      "inputs": [],
      "name": "paused",
      "outputs": [
        {
          "internalType": "bool",
          "name": "",
          "type": "bool"
        }
      ],
      "stateMutability": "view",
      "type": "function"
    },
    {
      "inputs": [],
      "name": "proxiableUUID",
      "outputs": [
        {
          "internalType": "bytes32",
          "name": "",
          "type": "bytes32"
        }
      ],
      "stateMutability": "view",
      "type": "function"
    },
    {
      "inputs": [],
      "name": "renounceOwnership",
      "outputs": [],
      "stateMutability": "nonpayable",
      "type": "function"
    },
    {
      "inputs": [
        {
          "internalType": "address",
          "name": "to",
          "type": "address"
        },
        {
          "internalType": "uint256",
          "name": "amount",
          "type": "uint256"
        }
      ],
      "name": "rescueETH",
      "outputs": [],
      "stateMutability": "nonpayable",
      "type": "function"
    },
    {
      "inputs": [],
      "name": "selectorCheckEnabled",
      "outputs": [
        {
          "internalType": "bool",
          "name": "",
          "type": "bool"
        }
      ],
      "stateMutability": "view",
      "type": "function"
    },
    {
      "inputs": [
        {
          "internalType": "address",
          "name": "protocol",
          "type": "address"
        },
        {
          "internalType": "bytes4",
          "name": "selector",
          "type": "bytes4"
        },
        {
          "internalType": "bool",
          "name": "status",
          "type": "bool"
        }
      ],
      "name": "setAllowedSelector",
      "outputs": [],
      "stateMutability": "nonpayable",
      "type": "function"
    },
    {
      "inputs": [
        {
          "internalType": "address",
          "name": "protocol",
          "type": "address"
        },
        {
          "internalType": "bytes4[]",
          "name": "selectors",
          "type": "bytes4[]"
        },
        {
          "internalType": "bool",
          "name": "status",
          "type": "bool"
        }
      ],
      "name": "setAllowedSelectors",
      "outputs": [],
      "stateMutability": "nonpayable",
      "type": "function"
    },
    {
      "inputs": [
        {
          "internalType": "address",
          "name": "executor",
          "type": "address"
        }
      ],
      "name": "setIntentExecutor",
      "outputs": [],
      "stateMutability": "nonpayable",
      "type": "function"
    },
    {
      "inputs": [
        {
          "internalType": "bool",
          "name": "enabled",
          "type": "bool"
        }
      ],
      "name": "setSelectorCheckEnabled",
      "outputs": [],
      "stateMutability": "nonpayable",
      "type": "function"
    },
    {
      "inputs": [
        {
          "internalType": "address",
          "name": "",
          "type": "address"
        }
      ],
      "name": "totalActiveReceived",
      "outputs": [
        {
          "internalType": "uint256",
          "name": "",
          "type": "uint256"
        }
      ],
      "stateMutability": "view",
      "type": "function"
    },
    {
      "inputs": [],
      "name": "totalEthBalance",
      "outputs": [
        {
          "internalType": "uint256",
          "name": "",
          "type": "uint256"
        }
      ],
      "stateMutability": "view",
      "type": "function"
    },
    {
      "inputs": [
        {
          "internalType": "address",
          "name": "newOwner",
          "type": "address"
        }
      ],
      "name": "transferOwnership",
      "outputs": [],
      "stateMutability": "nonpayable",
      "type": "function"
    },
    {
      "inputs": [],
      "name": "unpause",
      "outputs": [],
      "stateMutability": "nonpayable",
      "type": "function"
    },
    {
      "inputs": [
        {
          "internalType": "address",
          "name": "newImplementation",
          "type": "address"
        },
        {
          "internalType": "bytes",
          "name": "data",
          "type": "bytes"
        }
      ],
      "name": "upgradeToAndCall",
      "outputs": [],
      "stateMutability": "payable",
      "type": "function"
    },
    {
      "inputs": [
        {
          "internalType": "address",
          "name": "protocol",
          "type": "address"
        },
        {
          "internalType": "bool",
          "name": "status",
          "type": "bool"
        }
      ],
      "name": "whitelistProtocol",
      "outputs": [],
      "stateMutability": "nonpayable",
      "type": "function"
    },
    {
      "inputs": [
        {
          "internalType": "address",
          "name": "",
          "type": "address"
        }
      ],
      "name": "whitelistedProtocols",
      "outputs": [
        {
          "internalType": "bool",
          "name": "",
          "type": "bool"
        }
      ],
      "stateMutability": "view",
      "type": "function"
    },
    {
      "inputs": [
        {
          "internalType": "uint256",
          "name": "amount",
          "type": "uint256"
        }
      ],
      "name": "withdraw",
      "outputs": [],
      "stateMutability": "nonpayable",
      "type": "function"
    },
    {
      "inputs": [
        {
          "internalType": "uint256",
          "name": "positionId",
          "type": "uint256"
        }
      ],
      "name": "withdrawFromProtocol",
      "outputs": [],
      "stateMutability": "nonpayable",
      "type": "function"
    },
    {
      "stateMutability": "payable",
      "type": "receive"
    }
  ],
  "bytecode": "0x60a060405230608052348015610013575f5ffd5b5061001c610021565b6100d3565b7ff0c57e16840df040f15088dc2f81fe391c3923bec73e23a9662efc9c229c6a00805468010000000000000000900460ff16156100715760405163f92ee8a960e01b815260040160405180910390fd5b80546001600160401b03908116146100d05780546001600160401b0319166001600160401b0390811782556040519081527fc7f505b2f371ae2175ee4913f4499e1f2633a7b5936321eed1cdaeb6115181d29060200160405180910390a15b50565b60805161291a6100f95f395f8181611e0001528181611e290152611f6d015261291a5ff3fe6080604052600436106101d3575f3560e01c8063715018a6116100fd578063a5f352b711610092578063cc4242da11610062578063cc4242da146105f9578063d0e30db01461060c578063f2fde38b14610614578063f8fcf4df14610633575f5ffd5b8063a5f352b714610535578063ad3cb1cc14610564578063b44e8d87146105a1578063bba013aa146105c0575f5ffd5b80638456cb59116100cd5780638456cb59146104cf5780638a924640146104e35780638da5cb5b146105025780638efa3a8814610516575f5ffd5b8063715018a61461045a5780638129fc1c1461046e578063819941131461048257806384361c07146104a1575f5ffd5b80634773489211610173578063567fe97211610143578063567fe972146103cc57806359194d0c146103eb5780635c975abb14610400578063681dc2ad14610423575f5ffd5b806347734892146103525780634f1ef2861461038657806352d1902d14610399578063564b72b4146103ad575f5ffd5b806324990efe116101ae57806324990efe146102af5780632e1a7d4d146102e857806331e8a7ef146103075780633f4ba83a1461033e575f5ffd5b8063099a04e5146101de5780630cd0237b146101ff5780631c88ef1e1461022d575f5ffd5b366101da57005b5f5ffd5b3480156101e9575f5ffd5b506101fd6101f83660046123b9565b610652565b005b34801561020a575f5ffd5b506006546102189060ff1681565b60405190151581526020015b60405180910390f35b348015610238575f5ffd5b5061024c6102473660046123b9565b6107d5565b604051610224919081516001600160a01b03908116825260208084015182169083015260408084015190830152606080840151909116908201526080808301519082015260a0828101519082015260c09182015115159181019190915260e00190565b3480156102ba575f5ffd5b506102da6102c93660046123e3565b60046020525f908152604090205481565b604051908152602001610224565b3480156102f3575f5ffd5b506101fd610302366004612405565b61088f565b348015610312575f5ffd5b506102da6103213660046123e3565b6001600160a01b03165f9081526020819052604090206001015490565b348015610349575f5ffd5b506101fd6109f1565b34801561035d575f5ffd5b506102da61036c3660046123e3565b6001600160a01b03165f9081526020819052604090205490565b6101fd610394366004612430565b610a03565b3480156103a4575f5ffd5b506102da610a22565b3480156103b8575f5ffd5b506101fd6103c73660046123e3565b610a3d565b3480156103d7575f5ffd5b506101fd6103e636600461250a565b610adf565b3480156103f6575f5ffd5b506102da60035481565b34801561040b575f5ffd5b505f5160206128c55f395f51905f525460ff16610218565b34801561042e575f5ffd5b50600254610442906001600160a01b031681565b6040516001600160a01b039091168152602001610224565b348015610465575f5ffd5b506101fd610b28565b348015610479575f5ffd5b506101fd610b39565b34801561048d575f5ffd5b506101fd61049c366004612523565b610c39565b3480156104ac575f5ffd5b506102186104bb3660046123e3565b60016020525f908152604090205460ff1681565b3480156104da575f5ffd5b506101fd61123a565b3480156104ee575f5ffd5b506101fd6104fd366004612405565b61124a565b34801561050d575f5ffd5b50610442611625565b348015610521575f5ffd5b506101fd6105303660046125bc565b611653565b348015610540575f5ffd5b50600354604080514780825260208201849052929092101590820152606001610224565b34801561056f575f5ffd5b50610594604051806040016040528060058152602001640352e302e360dc1b81525081565b6040516102249190612650565b3480156105ac575f5ffd5b506101fd6105bb366004612685565b61174a565b3480156105cb575f5ffd5b506102186105da3660046126cf565b600560209081525f928352604080842090915290825290205460ff1681565b6101fd6106073660046123e3565b6117b4565b6101fd611b59565b34801561061f575f5ffd5b506101fd61062e3660046123e3565b611c1f565b34801561063e575f5ffd5b506101fd61064d3660046126f9565b611c59565b61065a611cdb565b6001600160a01b0382166106a45760405162461bcd60e51b815260206004820152600c60248201526b5a65726f206164647265737360a01b60448201526064015b60405180910390fd5b5f600354476106b3919061274f565b9050808211156106f75760405162461bcd60e51b815260206004820152600f60248201526e4578636565647320737572706c757360881b604482015260640161069b565b5f836001600160a01b0316836040515f6040518083038185875af1925050503d805f8114610740576040519150601f19603f3d011682016040523d82523d5f602084013e610745565b606091505b505090508061078c5760405162461bcd60e51b8152602060048201526013602482015272115512081d1c985b9cd9995c8819985a5b1959606a1b604482015260640161069b565b836001600160a01b03167fb3579861130e4da8bb7b87c54d2d139937f23bcd6e4ebed9e75d0f78ab1cc118846040516107c791815260200190565b60405180910390a250505050565b6040805160e0810182525f80825260208201819052918101829052606081018290526080810182905260a0810182905260c0810191909152506001600160a01b038083165f908152602081815260408083208584526002908101835292819020815160e081018352815486168152600182015486169381019390935292830154908201526003820154909216606083015260048101546080830152600581015460a08301526006015460ff16151560c08201525b92915050565b610897611d0d565b61089f611d42565b335f90815260208190526040902080548211156108f55760405162461bcd60e51b8152602060048201526014602482015273496e73756666696369656e742062616c616e636560601b604482015260640161069b565b81815f015f828254610907919061274f565b925050819055508160035f82825461091f919061274f565b90915550506040515f90339084908381818185875af1925050503d805f8114610963576040519150601f19603f3d011682016040523d82523d5f602084013e610968565b606091505b50509050806109af5760405162461bcd60e51b8152602060048201526013602482015272115512081d1c985b9cd9995c8819985a5b1959606a1b604482015260640161069b565b60405183815233907f7084f5476618d8e60b11ef0d7d3f06914655adb8793e28ff7f018d4c76d505d59060200160405180910390a250506109ee611d72565b50565b6109f9611cdb565b610a01611d9c565b565b610a0b611df5565b610a1482611e99565b610a1e8282611ea1565b5050565b5f610a2b611f62565b505f5160206128a55f395f51905f5290565b610a45611cdb565b6001600160a01b038116610a8a5760405162461bcd60e51b815260206004820152600c60248201526b5a65726f206164647265737360a01b604482015260640161069b565b600280546001600160a01b0319166001600160a01b0383169081179091556040519081527fb2ba57d7296532277dd3415e128f0f094d3d59a02318ca2f46c0d195acac99de906020015b60405180910390a150565b610ae7611cdb565b6006805460ff19168215159081179091556040519081527f48906882df6280cb98806967f150f96141f749536d12710f4a87459853f8dc9d90602001610ad4565b610b30611cdb565b610a015f611fab565b5f610b4261201b565b805490915060ff600160401b820416159067ffffffffffffffff165f81158015610b695750825b90505f8267ffffffffffffffff166001148015610b855750303b155b905081158015610b93575080155b15610bb15760405163f92ee8a960e01b815260040160405180910390fd5b845467ffffffffffffffff191660011785558315610bdb57845460ff60401b1916600160401b1785555b610be433612043565b610bec612054565b8315610c3257845460ff60401b19168555604051600181527fc7f505b2f371ae2175ee4913f4499e1f2633a7b5936321eed1cdaeb6115181d29060200160405180910390a15b5050505050565b6002546001600160a01b0316331480610c6a5750610c55611625565b6001600160a01b0316336001600160a01b0316145b610ca75760405162461bcd60e51b815260206004820152600e60248201526d139bdd08185d5d1a1bdc9a5e995960921b604482015260640161069b565b610caf611d0d565b610cb7611d42565b6001600160a01b0384165f9081526001602052604090205460ff16610d1e5760405162461bcd60e51b815260206004820152601860248201527f50726f746f636f6c206e6f742077686974656c69737465640000000000000000604482015260640161069b565b60065460ff168015610d31575060048110155b15610dc5575f610d446004828486612762565b610d4d91612789565b6001600160a01b0386165f9081526005602090815260408083206001600160e01b03198516845290915290205490915060ff16610dc35760405162461bcd60e51b815260206004820152601460248201527314d95b1958dd1bdc881b9bdd08185b1b1bddd95960621b604482015260640161069b565b505b6001600160a01b0385165f9081526020819052604090208054841115610e245760405162461bcd60e51b8152602060048201526014602482015273496e73756666696369656e742062616c616e636560601b604482015260640161069b565b83815f015f828254610e36919061274f565b925050819055508360035f828254610e4e919061274f565b909155505f905080806001600160a01b0388163b15610f3557876001600160a01b0316636d2a583a6040518163ffffffff1660e01b8152600401602060405180830381865afa925050508015610ec1575060408051601f3d908101601f19168201909252610ebe918101906127bf565b60015b15610f35576040516370a0823160e01b815230600482015290935083906001600160a01b038216906370a0823190602401602060405180830381865afa158015610f0d573d5f5f3e3d5ffd5b505050506040513d601f19601f82011682018060405250810190610f3191906127da565b9150505b5f886001600160a01b0316888888604051610f519291906127f1565b5f6040518083038185875af1925050503d805f8114610f8b576040519150601f19603f3d011682016040523d82523d5f602084013e610f90565b606091505b5050905080610fe15760405162461bcd60e51b815260206004820152601960248201527f537472617465677920657865637574696f6e206661696c656400000000000000604482015260640161069b565b6001600160a01b03841615611097576040516370a0823160e01b815230600482015282906001600160a01b038616906370a0823190602401602060405180830381865afa158015611034573d5f5f3e3d5ffd5b505050506040513d601f19601f8201168201806040525081019061105891906127da565b611062919061274f565b92508215611097576001600160a01b0384165f9081526004602052604081208054859290611091908490612800565b90915550505b6001850180545f91826110a983612813565b9190505590506040518060e001604052808b6001600160a01b031681526020015f6001600160a01b031681526020018a8152602001866001600160a01b0316815260200185815260200142815260200160011515815250866002015f8381526020019081526020015f205f820151815f015f6101000a8154816001600160a01b0302191690836001600160a01b031602179055506020820151816001015f6101000a8154816001600160a01b0302191690836001600160a01b03160217905550604082015181600201556060820151816003015f6101000a8154816001600160a01b0302191690836001600160a01b031602179055506080820151816004015560a0820151816005015560c0820151816006015f6101000a81548160ff0219169083151502179055509050508a6001600160a01b03167f261adf9a852b85e3c97abb4455d53175fa84f5651ceb5675941a1c24fa3879df8b8b6040516112249291906001600160a01b03929092168252602082015260400190565b60405180910390a2505050505050610c32611d72565b611242611cdb565b610a0161205c565b611252611d0d565b61125a611d42565b335f908152602081815260408083208484526002019091529020600681015460ff166112b55760405162461bcd60e51b815260206004820152600a6024820152694e6f742061637469766560b01b604482015260640161069b565b60038101546001600160a01b03166113035760405162461bcd60e51b81526020600482015260116024820152702737903932b1b2b4bb32b2103a37b5b2b760791b604482015260640161069b565b60038101546040516370a0823160e01b81523060048201525f916001600160a01b0316906370a0823190602401602060405180830381865afa15801561134b573d5f5f3e3d5ffd5b505050506040513d601f19601f8201168201806040525081019061136f91906127da565b90505f81116113b65760405162461bcd60e51b81526020600482015260136024820152724e6f20746f6b656e7320746f2072656465656d60681b604482015260640161069b565b60038201546001600160a01b03165f9081526004602081905260408220549084015490919082116113e8575081611410565b818385600401546113f9919061282b565b6114039190612842565b9050828111156114105750815b5f81116114535760405162461bcd60e51b81526020600482015260116024820152704e6f7468696e6720746f2072656465656d60781b604482015260640161069b565b60048085015460038601546001600160a01b03165f9081526020929092526040822080549192909161148690849061274f565b9091555050835460038501546114a9916001600160a01b039182169116836120a4565b83546040516024810183905230604482015247915f916001600160a01b039091169060640160408051601f198184030181529181526020820180516001600160e01b0316631b08c5a960e11b179052516115039190612861565b5f604051808303815f865af19150503d805f811461153c576040519150601f19603f3d011682016040523d82523d5f602084013e611541565b606091505b50509050806115845760405162461bcd60e51b815260206004820152600f60248201526e15da5d1a191c985dc819985a5b1959608a1b604482015260640161069b565b5f61158f834761274f565b335f908152602081905260408120805492935083929091906115b2908490612800565b925050819055508060035f8282546115ca9190612800565b909155505060068701805460ff19169055604080518981526020810183905233917fc8469f8998427d0814b7efed804617bd8c43dfdfb3c6780d28a03ecf361fb698910160405180910390a2505050505050506109ee611d72565b7f9016d09d72d40fdae2fd8ceac6b6234c7706214fd39c1cd1e609a0528c199300546001600160a01b031690565b61165b611cdb565b5f5b82811015610c32576001600160a01b0385165f908152600560205260408120839186868581811061169057611690612877565b90506020020160208101906116a5919061288b565b6001600160e01b031916815260208101919091526040015f20805460ff19169115159190911790556001600160a01b0385167f840b667f87738b9da1db624bc140d21f834cc7842dfc078ecadec9f6ec2c62ca85858481811061170a5761170a612877565b905060200201602081019061171f919061288b565b604080516001600160e01b0319909216825285151560208301520160405180910390a260010161165d565b611752611cdb565b6001600160a01b0382165f81815260016020908152604091829020805460ff19168515159081179091558251938452908301527f60d00706f06f6d09b5d1016c03123544f47b263dbf449d0a2713b17adad05453910160405180910390a15050565b6117bc611d0d565b6117c4611d42565b5f34116118005760405162461bcd60e51b815260206004820152600a6024820152695a65726f2076616c756560b01b604482015260640161069b565b6001600160a01b0381165f9081526001602052604090205460ff166118595760405162461bcd60e51b815260206004820152600f60248201526e139bdd081dda1a5d195b1a5cdd1959608a1b604482015260640161069b565b5f816001600160a01b0316636d2a583a6040518163ffffffff1660e01b8152600401602060405180830381865afa158015611896573d5f5f3e3d5ffd5b505050506040513d601f19601f820116820180604052508101906118ba91906127bf565b6040516370a0823160e01b81523060048201529091505f906001600160a01b038316906370a0823190602401602060405180830381865afa158015611901573d5f5f3e3d5ffd5b505050506040513d601f19601f8201168201806040525081019061192591906127da565b604051631696d40360e11b81523060048201529091506001600160a01b03841690632d2da8069034906024015f604051808303818588803b158015611968575f5ffd5b505af115801561197a573d5f5f3e3d5ffd5b50506040516370a0823160e01b81523060048201525f93508492506001600160a01b03861691506370a0823190602401602060405180830381865afa1580156119c5573d5f5f3e3d5ffd5b505050506040513d601f19601f820116820180604052508101906119e991906127da565b6119f3919061274f565b335f908152602081905260408120600101805492935090919082611a1683612813565b909155506040805160e0810182526001600160a01b0380891682525f6020808401828152348587019081528b851660608701818152608088018c81524260a08a01908152600160c08b01818152338a528989528c8a208e8b5260029081018a528d8b209c518d54908d166001600160a01b0319918216178e559851928d018054938d16938a16939093179092559551908b0155915160038a01805491909916951694909417909655915160048088019190915594516005870155516006909501805495151560ff1990961695909517909455928152915290812080549293508492909190611b05908490612800565b9091555050604080516001600160a01b038716815234602082015233917f261adf9a852b85e3c97abb4455d53175fa84f5651ceb5675941a1c24fa3879df910160405180910390a2505050506109ee611d72565b611b61611d0d565b611b69611d42565b5f3411611ba75760405162461bcd60e51b815260206004820152600c60248201526b16995c9bc819195c1bdcda5d60a21b604482015260640161069b565b335f9081526020819052604081208054349290611bc5908490612800565b925050819055503460035f828254611bdd9190612800565b909155505060405134815233907f2da466a7b24304f47e87fa2e1e5a81b9831ce54fec19055ce277ca2f39ba42c49060200160405180910390a2610a01611d72565b611c27611cdb565b6001600160a01b038116611c5057604051631e4fbdf760e01b81525f600482015260240161069b565b6109ee81611fab565b611c61611cdb565b6001600160a01b0383165f8181526005602090815260408083206001600160e01b0319871680855290835292819020805460ff19168615159081179091558151938452918301919091527f840b667f87738b9da1db624bc140d21f834cc7842dfc078ecadec9f6ec2c62ca910160405180910390a2505050565b33611ce4611625565b6001600160a01b031614610a015760405163118cdaa760e01b815233600482015260240161069b565b611d156120d9565b610a0160017f9b779b17422d0df92223018b32b4d1fa46e071723d6817e2486d003becc55f005b90612119565b5f5160206128c55f395f51905f525460ff1615610a015760405163d93c066560e01b815260040160405180910390fd5b610a015f7f9b779b17422d0df92223018b32b4d1fa46e071723d6817e2486d003becc55f00611d3c565b611da4612120565b5f5160206128c55f395f51905f52805460ff191681557f5db9ee0a495bf2e6ff9c91a7834c1ba4fdd244a5e8aa4e537bd38aeae4b073aa335b6040516001600160a01b039091168152602001610ad4565b306001600160a01b037f0000000000000000000000000000000000000000000000000000000000000000161480611e7b57507f00000000000000000000000000000000000000000000000000000000000000006001600160a01b0316611e6f5f5160206128a55f395f51905f52546001600160a01b031690565b6001600160a01b031614155b15610a015760405163703e46dd60e11b815260040160405180910390fd5b6109ee611cdb565b816001600160a01b03166352d1902d6040518163ffffffff1660e01b8152600401602060405180830381865afa925050508015611efb575060408051601f3d908101601f19168201909252611ef8918101906127da565b60015b611f2357604051634c9c8ce360e01b81526001600160a01b038316600482015260240161069b565b5f5160206128a55f395f51905f528114611f5357604051632a87526960e21b81526004810182905260240161069b565b611f5d838361214f565b505050565b306001600160a01b037f00000000000000000000000000000000000000000000000000000000000000001614610a015760405163703e46dd60e11b815260040160405180910390fd5b7f9016d09d72d40fdae2fd8ceac6b6234c7706214fd39c1cd1e609a0528c19930080546001600160a01b031981166001600160a01b03848116918217845560405192169182907f8be0079c531659141344cd1fd0a4f28419497f9722a3daafe3b4186f6b6457e0905f90a3505050565b5f807ff0c57e16840df040f15088dc2f81fe391c3923bec73e23a9662efc9c229c6a00610889565b61204b6121a4565b6109ee816121c9565b610a016121a4565b612064611d42565b5f5160206128c55f395f51905f52805460ff191660011781557f62e78cea01bee320cd4e420270b5ea74000d11b0c9f74754ebdbfc544b05a25833611ddd565b6120b183838360016121d1565b611f5d57604051635274afe760e01b81526001600160a01b038416600482015260240161069b565b7f9b779b17422d0df92223018b32b4d1fa46e071723d6817e2486d003becc55f005c15610a0157604051633ee5aeb560e01b815260040160405180910390fd5b80825d5050565b5f5160206128c55f395f51905f525460ff16610a0157604051638dfc202b60e01b815260040160405180910390fd5b61215882612233565b6040516001600160a01b038316907fbc7cd75a20ee27fd9adebab32041f755214dbc6bffa90cc0225b39da2e5c2d3b905f90a280511561219c57611f5d8282612296565b610a1e612336565b6121ac612355565b610a0157604051631afcd79f60e31b815260040160405180910390fd5b611c276121a4565b60405163a9059cbb60e01b5f8181526001600160a01b038616600452602485905291602083604481808b5af1925060015f5114831661222757838315161561221b573d5f823e3d81fd5b5f873b113d1516831692505b60405250949350505050565b806001600160a01b03163b5f0361226857604051634c9c8ce360e01b81526001600160a01b038216600482015260240161069b565b5f5160206128a55f395f51905f5280546001600160a01b0319166001600160a01b0392909216919091179055565b60605f6122a3848461236e565b90508080156122c457505f3d11806122c457505f846001600160a01b03163b115b156122d9576122d1612381565b915050610889565b801561230357604051639996b31560e01b81526001600160a01b038516600482015260240161069b565b3d156123165761231161239a565b61232f565b60405163d6bda27560e01b815260040160405180910390fd5b5092915050565b3415610a015760405163b398979f60e01b815260040160405180910390fd5b5f61235e61201b565b54600160401b900460ff16919050565b5f5f5f835160208501865af49392505050565b6040513d81523d5f602083013e3d602001810160405290565b6040513d5f823e3d81fd5b6001600160a01b03811681146109ee575f5ffd5b5f5f604083850312156123ca575f5ffd5b82356123d5816123a5565b946020939093013593505050565b5f602082840312156123f3575f5ffd5b81356123fe816123a5565b9392505050565b5f60208284031215612415575f5ffd5b5035919050565b634e487b7160e01b5f52604160045260245ffd5b5f5f60408385031215612441575f5ffd5b823561244c816123a5565b9150602083013567ffffffffffffffff811115612467575f5ffd5b8301601f81018513612477575f5ffd5b803567ffffffffffffffff8111156124915761249161241c565b604051601f8201601f19908116603f0116810167ffffffffffffffff811182821017156124c0576124c061241c565b6040528181528282016020018710156124d7575f5ffd5b816020840160208301375f602083830101528093505050509250929050565b80358015158114612505575f5ffd5b919050565b5f6020828403121561251a575f5ffd5b6123fe826124f6565b5f5f5f5f5f60808688031215612537575f5ffd5b8535612542816123a5565b94506020860135612552816123a5565b935060408601359250606086013567ffffffffffffffff811115612574575f5ffd5b8601601f81018813612584575f5ffd5b803567ffffffffffffffff81111561259a575f5ffd5b8860208284010111156125ab575f5ffd5b959894975092955050506020019190565b5f5f5f5f606085870312156125cf575f5ffd5b84356125da816123a5565b9350602085013567ffffffffffffffff8111156125f5575f5ffd5b8501601f81018713612605575f5ffd5b803567ffffffffffffffff81111561261b575f5ffd5b8760208260051b840101111561262f575f5ffd5b60209190910193509150612645604086016124f6565b905092959194509250565b602081525f82518060208401528060208501604085015e5f604082850101526040601f19601f83011684010191505092915050565b5f5f60408385031215612696575f5ffd5b82356126a1816123a5565b91506126af602084016124f6565b90509250929050565b80356001600160e01b031981168114612505575f5ffd5b5f5f604083850312156126e0575f5ffd5b82356126eb816123a5565b91506126af602084016126b8565b5f5f5f6060848603121561270b575f5ffd5b8335612716816123a5565b9250612724602085016126b8565b9150612732604085016124f6565b90509250925092565b634e487b7160e01b5f52601160045260245ffd5b818103818111156108895761088961273b565b5f5f85851115612770575f5ffd5b8386111561277c575f5ffd5b5050820193919092039150565b80356001600160e01b0319811690600484101561232f576001600160e01b031960049490940360031b84901b1690921692915050565b5f602082840312156127cf575f5ffd5b81516123fe816123a5565b5f602082840312156127ea575f5ffd5b5051919050565b818382375f9101908152919050565b808201808211156108895761088961273b565b5f600182016128245761282461273b565b5060010190565b80820281158282048414176108895761088961273b565b5f8261285c57634e487b7160e01b5f52601260045260245ffd5b500490565b5f82518060208501845e5f920191825250919050565b634e487b7160e01b5f52603260045260245ffd5b5f6020828403121561289b575f5ffd5b6123fe826126b856fe360894a13ba1a3210667c828492db98dca3e2076cc3735a920a3ca505d382bbccd5ed15c6e187e77e9aee88184c21f4f2182ab5827cb3b7e07fbedcd63f03300a2646970667358221220d6a6ccf2e68c3d1e0b2ebc850f231102e5f81136106d2fc1134e4a1a2f03c28564736f6c634300081c0033",
  "linkReferences": {},
  "deployedLinkReferences": {}
}