{
  "_format": "hh-sol-artifact-1",
  "contractName": "IntentExecutor",
  "sourceName": "contracts/IntentExecutor.sol",
  "abi": [
    {
      "inputs": [],
      "stateMutability": "nonpayable",
      "type": "constructor"
    },
    {
      "inputs": [
        {
          "internalType": "address",
          "name": "target",
          "type": "address"
        }
      ],
      "name": "AddressEmptyCode",
      "type": "error"
    },
    {
      "inputs": [],
      "name": "ECDSAInvalidSignature",
      "type": "error"
    },
    {
      "inputs": [
        {
          "internalType": "uint256",
          "name": "length",
          "type": "uint256"
        }
      ],
      "name": "ECDSAInvalidSignatureLength",
      "type": "error"
    },
    {
      "inputs": [
        {
          "internalType": "bytes32",
          "name": "s",
          "type": "bytes32"
        }
      ],
      "name": "ECDSAInvalidSignatureS",
      "type": "error"
    },
    {
      "inputs": [
        {
          "internalType": "address",
          "name": "implementation",
          "type": "address"
        }
      ],
      "name": "ERC1967InvalidImplementation",
      "type": "error"
    },
    {
      "inputs": [],
      "name": "ERC1967NonPayable",
      "type": "error"
    },
    {
      "inputs": [],
      "name": "EnforcedPause",
      "type": "error"
    },
    {
      "inputs": [],
      "name": "ExpectedPause",
      "type": "error"
    },
    {
      "inputs": [],
      "name": "FailedCall",
      "type": "error"
    },
    {
      "inputs": [],
      "name": "InvalidInitialization",
      "type": "error"
    },
    {
      "inputs": [],
      "name": "NotInitializing",
      "type": "error"
    },
    {
      "inputs": [
        {
          "internalType": "address",
          "name": "owner",
          "type": "address"
        }
      ],
      "name": "OwnableInvalidOwner",
      "type": "error"
    },
    {
      "inputs": [
        {
          "internalType": "address",
          "name": "account",
          "type": "address"
        }
      ],
      "name": "OwnableUnauthorizedAccount",
      "type": "error"
    },
    {
      "inputs": [],
      "name": "UUPSUnauthorizedCallContext",
      "type": "error"
    },
    {
      "inputs": [
        {
          "internalType": "bytes32",
          "name": "slot",
          "type": "bytes32"
        }
      ],
      "name": "UUPSUnsupportedProxiableUUID",
      "type": "error"
    },
    {
      "anonymous": false,
      "inputs": [],
      "name": "EIP712DomainChanged",
      "type": "event"
    },
    {
      "anonymous": false,
      "inputs": [
        {
          "indexed": false,
          "internalType": "uint64",
          "name": "version",
          "type": "uint64"
        }
      ],
      "name": "Initialized",
      "type": "event"
    },
    {
      "anonymous": false,
      "inputs": [
        {
          "indexed": true,
          "internalType": "address",
          "name": "user",
          "type": "address"
        },
        {
          "indexed": false,
          "internalType": "uint256",
          "name": "count",
          "type": "uint256"
        }
      ],
      "name": "IntentsBatchExecuted",
      "type": "event"
    },
    {
      "anonymous": false,
      "inputs": [
        {
          "indexed": true,
          "internalType": "address",
          "name": "previousOwner",
          "type": "address"
        },
        {
          "indexed": true,
          "internalType": "address",
          "name": "newOwner",
          "type": "address"
        }
      ],
      "name": "OwnershipTransferred",
      "type": "event"
    },
    {
      "anonymous": false,
      "inputs": [
        {
          "indexed": false,
          "internalType": "address",
          "name": "account",
          "type": "address"
        }
      ],
      "name": "Paused",
      "type": "event"
    },
    {
      "anonymous": false,
      "inputs": [
        {
          "indexed": false,
          "internalType": "bool",
          "name": "required",
          "type": "bool"
        }
      ],
      "name": "SignatureRequirementChanged",
      "type": "event"
    },
    {
      "anonymous": false,
      "inputs": [
        {
          "indexed": false,
          "internalType": "address",
          "name": "solver",
          "type": "address"
        },
        {
          "indexed": false,
          "internalType": "bool",
          "name": "status",
          "type": "bool"
        }
      ],
      "name": "SolverUpdated",
      "type": "event"
    },
    {
      "anonymous": false,
      "inputs": [
        {
          "indexed": false,
          "internalType": "address",
          "name": "account",
          "type": "address"
        }
      ],
      "name": "Unpaused",
      "type": "event"
    },
    {
      "anonymous": false,
      "inputs": [
        {
          "indexed": true,
          "internalType": "address",
          "name": "implementation",
          "type": "address"
        }
      ],
      "name": "Upgraded",
      "type": "event"
    },
    {
      "anonymous": false,
      "inputs": [
        {
          "indexed": false,
          "internalType": "address",
          "name": "vault",
          "type": "address"
        }
      ],
      "name": "VaultUpdated",
      "type": "event"
    },
    {
      "inputs": [],
      "name": "BATCH_TYPEHASH",
      "outputs": [
        {
          "internalType": "bytes32",
          "name": "",
          "type": "bytes32"
        }
      ],
      "stateMutability": "view",
      "type": "function"
    },
    {
      "inputs": [],
      "name": "INTENT_TYPEHASH",
      "outputs": [
        {
          "internalType": "bytes32",
          "name": "",
          "type": "bytes32"
        }
      ],
      "stateMutability": "view",
      "type": "function"
    },
    {
      "inputs": [],
      "name": "UPGRADE_INTERFACE_VERSION",
      "outputs": [
        {
          "internalType": "string",
          "name": "",
          "type": "string"
        }
      ],
      "stateMutability": "view",
      "type": "function"
    },
    {
      "inputs": [],
      "name": "eip712Domain",
      "outputs": [
        {
          "internalType": "bytes1",
          "name": "fields",
          "type": "bytes1"
        },
        {
          "internalType": "string",
          "name": "name",
          "type": "string"
        },
        {
          "internalType": "string",
          "name": "version",
          "type": "string"
        },
        {
          "internalType": "uint256",
          "name": "chainId",
          "type": "uint256"
        },
        {
          "internalType": "address",
          "name": "verifyingContract",
          "type": "address"
        },
        {
          "internalType": "bytes32",
          "name": "salt",
          "type": "bytes32"
        },
        {
          "internalType": "uint256[]",
          "name": "extensions",
          "type": "uint256[]"
        }
      ],
      "stateMutability": "view",
      "type": "function"
    },
    {
      "inputs": [
        {
          "internalType": "address",
          "name": "user",
          "type": "address"
        },
        {
          "components": [
            {
              "internalType": "address",
              "name": "protocol",
              "type": "address"
            },
            {
              "internalType": "uint256",
              "name": "amount",
              "type": "uint256"
            },
            {
              "internalType": "bytes",
              "name": "data",
              "type": "bytes"
            }
          ],
          "internalType": "struct IntentExecutor.Intent[]",
          "name": "intents",
          "type": "tuple[]"
        }
      ],
      "name": "executeBatch",
      "outputs": [],
      "stateMutability": "nonpayable",
      "type": "function"
    },
    {
      "inputs": [
        {
          "internalType": "address",
          "name": "user",
          "type": "address"
        },
        {
          "components": [
            {
              "internalType": "address",
              "name": "protocol",
              "type": "address"
            },
            {
              "internalType": "uint256",
              "name": "amount",
              "type": "uint256"
            },
            {
              "internalType": "bytes",
              "name": "data",
              "type": "bytes"
            }
          ],
          "internalType": "struct IntentExecutor.Intent[]",
          "name": "intents",
          "type": "tuple[]"
        },
        {
          "internalType": "uint256",
          "name": "deadline",
          "type": "uint256"
        },
        {
          "internalType": "bytes",
          "name": "signature",
          "type": "bytes"
        }
      ],
      "name": "executeBatchWithSig",
      "outputs": [],
      "stateMutability": "nonpayable",
      "type": "function"
    },
    {
      "inputs": [
        {
          "internalType": "address",
          "name": "_vault",
          "type": "address"
        }
      ],
      "name": "initialize",
      "outputs": [],
      "stateMutability": "nonpayable",
      "type": "function"
    },
    {
      "inputs": [
        {
          "internalType": "address",
          "name": "",
          "type": "address"
        }
      ],
      "name": "nonces",
      "outputs": [
        {
          "internalType": "uint256",
          "name": "",
          "type": "uint256"
        }
      ],
      "stateMutability": "view",
      "type": "function"
    },
    {
      "inputs": [],
      "name": "owner",
      "outputs": [
        {
          "internalType": "address",
          "name": "",
          "type": "address"
        }
      ],
      "stateMutability": "view",
      "type": "function"
    },
    {
      "inputs": [],
      "name": "pause",
      "outputs": [],
      "stateMutability": "nonpayable",
      "type": "function"
    },
    {
      "inputs": [],
      "name": "paused",
      "outputs": [
        {
          "internalType": "bool",
          "name": "",
          "type": "bool"
        }
      ],
      "stateMutability": "view",
      "type": "function"
    },
    {
      "inputs": [],
      "name": "proxiableUUID",
      "outputs": [
        {
          "internalType": "bytes32",
          "name": "",
          "type": "bytes32"
        }
      ],
      "stateMutability": "view",
      "type": "function"
    },
    {
      "inputs": [],
      "name": "renounceOwnership",
      "outputs": [],
      "stateMutability": "nonpayable",
      "type": "function"
    },
    {
      "inputs": [
        {
          "internalType": "bool",
          "name": "required",
          "type": "bool"
        }
      ],
      "name": "setSignatureRequired",
      "outputs": [],
      "stateMutability": "nonpayable",
      "type": "function"
    },
    {
      "inputs": [
        {
          "internalType": "address",
          "name": "solver",
          "type": "address"
        },
        {
          "internalType": "bool",
          "name": "status",
          "type": "bool"
        }
      ],
      "name": "setSolver",
      "outputs": [],
      "stateMutability": "nonpayable",
      "type": "function"
    },
    {
      "inputs": [
        {
          "internalType": "address",
          "name": "_vault",
          "type": "address"
        }
      ],
      "name": "setVault",
      "outputs": [],
      "stateMutability": "nonpayable",
      "type": "function"
    },
    {
      "inputs": [],
      "name": "signatureRequired",
      "outputs": [
        {
          "internalType": "bool",
          "name": "",
          "type": "bool"
        }
      ],
      "stateMutability": "view",
      "type": "function"
    },
    {
      "inputs": [
        {
          "internalType": "address",
          "name": "",
          "type": "address"
        }
      ],
      "name": "solvers",
      "outputs": [
        {
          "internalType": "bool",
          "name": "",
          "type": "bool"
        }
      ],
      "stateMutability": "view",
      "type": "function"
    },
    {
      "inputs": [
        {
          "internalType": "address",
          "name": "newOwner",
          "type": "address"
        }
      ],
      "name": "transferOwnership",
      "outputs": [],
      "stateMutability": "nonpayable",
      "type": "function"
    },
    {
      "inputs": [],
      "name": "unpause",
      "outputs": [],
      "stateMutability": "nonpayable",
      "type": "function"
    },
    {
      "inputs": [
        {
          "internalType": "address",
          "name": "newImplementation",
          "type": "address"
        },
        {
          "internalType": "bytes",
          "name": "data",
          "type": "bytes"
        }
      ],
      "name": "upgradeToAndCall",
      "outputs": [],
      "stateMutability": "payable",
      "type": "function"
    },
    {
      "inputs": [],
      "name": "vault",
      "outputs": [
        {
          "internalType": "contract IDeFiPilotVault",
          "name": "",
          "type": "address"
        }
      ],
      "stateMutability": "view",
      "type": "function"
    }
  ],
  "bytecode": "0x60a060405230608052348015610013575f5ffd5b5061001c610021565b6100d3565b7ff0c57e16840df040f15088dc2f81fe391c3923bec73e23a9662efc9c229c6a00805468010000000000000000900460ff16156100715760405163f92ee8a960e01b815260040160405180910390fd5b80546001600160401b03908116146100d05780546001600160401b0319166001600160401b0390811782556040519081527fc7f505b2f371ae2175ee4913f4499e1f2633a7b5936321eed1cdaeb6115181d29060200160405180910390a15b50565b608051611ec86100f95f395f8181610bf601528181610c1f0152610d5e0152611ec85ff3fe608060405260043610610131575f3560e01c80638da5cb5b116100a8578063b7848f321161006d578063b7848f3214610372578063c4d66de8146103a5578063d0c5a5dc146103c4578063d5add906146103e3578063f2fde38b14610402578063fbfa77cf14610421575f5ffd5b80638da5cb5b1461029e57806399ffbe5f146102ca578063a30b8ed4146102e9578063ad3cb1cc14610302578063b082a2741461033f575f5ffd5b80636817031b116100f95780636817031b146101e6578063690e33ec14610205578063715018a6146102245780637ecebe00146102385780638456cb591461026357806384b0196e14610277575f5ffd5b80633f4ba83a146101355780634f1ef2861461014b57806352d1902d1461015e57806357f58d98146101855780635c975abb146101c3575b5f5ffd5b348015610140575f5ffd5b5061014961043f565b005b610149610159366004611865565b610451565b348015610169575f5ffd5b50610172610470565b6040519081526020015b60405180910390f35b348015610190575f5ffd5b506101b361019f366004611926565b60016020525f908152604090205460ff1681565b604051901515815260200161017c565b3480156101ce575f5ffd5b505f516020611e735f395f51905f525460ff166101b3565b3480156101f1575f5ffd5b50610149610200366004611926565b61048b565b348015610210575f5ffd5b5061014961021f36600461198d565b610531565b34801561022f575f5ffd5b5061014961074e565b348015610243575f5ffd5b50610172610252366004611926565b60026020525f908152604090205481565b34801561026e575f5ffd5b5061014961075f565b348015610282575f5ffd5b5061028b61076f565b60405161017c9796959493929190611a6f565b3480156102a9575f5ffd5b506102b26107b1565b6040516001600160a01b03909116815260200161017c565b3480156102d5575f5ffd5b506101496102e4366004611b14565b6107df565b3480156102f4575f5ffd5b506003546101b39060ff1681565b34801561030d575f5ffd5b50610332604051806040016040528060058152602001640352e302e360dc1b81525081565b60405161017c9190611b2d565b34801561034a575f5ffd5b506101727fa03d9dee3c103bf5ebce82e4c03065d1a35cc8627aa2c930fb7429036c2ad01b81565b34801561037d575f5ffd5b506101727f4af5554db1ee23ae98fda1e0e902f3bfe599a17d3be899f11ed9da98fd5877dc81565b3480156103b0575f5ffd5b506101496103bf366004611926565b610828565b3480156103cf575f5ffd5b506101496103de366004611b3f565b6109ca565b3480156103ee575f5ffd5b506101496103fd366004611b8d565b610ab9565b34801561040d575f5ffd5b5061014961041c366004611926565b610b23565b34801561042c575f5ffd5b505f546102b2906001600160a01b031681565b610447610b60565b61044f610b92565b565b610459610beb565b61046282610c8f565b61046c8282610c97565b5050565b5f610479610d53565b505f516020611e535f395f51905f5290565b610493610b60565b6001600160a01b0381166104dd5760405162461bcd60e51b815260206004820152600c60248201526b5a65726f206164647265737360a01b60448201526064015b60405180910390fd5b5f80546001600160a01b0319166001600160a01b0383169081179091556040519081527f161584aed96e7f34998117c9ad67e2d21ff46d2a42775c22b11ed282f3c7b2cd906020015b60405180910390a150565b335f9081526001602052604090205460ff168061056657506105516107b1565b6001600160a01b0316336001600160a01b0316145b6105a15760405162461bcd60e51b815260206004820152600c60248201526b2737ba10309039b7b63b32b960a11b60448201526064016104d4565b6105a9610d9c565b824211156105ed5760405162461bcd60e51b815260206004820152601160248201527014da59db985d1d5c9948195e1c1a5c9959607a1b60448201526064016104d4565b5f6105f88686610dcc565b6001600160a01b0388165f908152600260205260408120805492935090917f4af5554db1ee23ae98fda1e0e902f3bfe599a17d3be899f11ed9da98fd5877dc918a9185918561064683611bbe565b909155506040805160208101959095526001600160a01b03909316928401929092526060830152608082015260a0810186905260c0016040516020818303038152906040528051906020012090505f61069e82610f7b565b90505f6106e08287878080601f0160208091040260200160405190810160405280939291908181526020018383808284375f92019190915250610fa792505050565b9050896001600160a01b0316816001600160a01b0316146107375760405162461bcd60e51b8152602060048201526011602482015270496e76616c6964207369676e617475726560781b60448201526064016104d4565b6107428a8a8a610fcf565b50505050505050505050565b610756610b60565b61044f5f611113565b610767610b60565b61044f611183565b5f6060805f5f5f60606107806111cb565b61078861129e565b604080515f80825260208201909252600f60f81b9b939a50919850469750309650945092509050565b7f9016d09d72d40fdae2fd8ceac6b6234c7706214fd39c1cd1e609a0528c199300546001600160a01b031690565b6107e7610b60565b6003805460ff19168215159081179091556040519081527f8950620217f2f94331afe7bb3f74352d0841ed2ba8e69ce902033f787b8c394f90602001610526565b5f6108316112ef565b805490915060ff600160401b82041615906001600160401b03165f811580156108575750825b90505f826001600160401b031660011480156108725750303b155b905081158015610880575080155b1561089e5760405163f92ee8a960e01b815260040160405180910390fd5b845467ffffffffffffffff1916600117855583156108c857845460ff60401b1916600160401b1785555b6001600160a01b03861661090d5760405162461bcd60e51b815260206004820152600c60248201526b5a65726f206164647265737360a01b60448201526064016104d4565b61091633611317565b61091e611328565b610962604051806040016040528060098152602001681119519a541a5b1bdd60ba1b815250604051806040016040528060018152602001603160f81b815250611330565b5f80546001600160a01b0319166001600160a01b03881617905583156109c257845460ff60401b19168555604051600181527fc7f505b2f371ae2175ee4913f4499e1f2633a7b5936321eed1cdaeb6115181d29060200160405180910390a15b505050505050565b335f9081526001602052604090205460ff16806109ff57506109ea6107b1565b6001600160a01b0316336001600160a01b0316145b610a3a5760405162461bcd60e51b815260206004820152600c60248201526b2737ba10309039b7b63b32b960a11b60448201526064016104d4565b610a42610d9c565b60035460ff1615610aa95760405162461bcd60e51b815260206004820152602b60248201527f5369676e61747572652072657175697265643a2075736520657865637574654260448201526a617463685769746853696760a81b60648201526084016104d4565b610ab4838383610fcf565b505050565b610ac1610b60565b6001600160a01b0382165f81815260016020908152604091829020805460ff19168515159081179091558251938452908301527fc91b49fad1fbae31168e5c77fa434ffd38849e05da4ab772b1558d139aefc5f6910160405180910390a15050565b610b2b610b60565b6001600160a01b038116610b5457604051631e4fbdf760e01b81525f60048201526024016104d4565b610b5d81611113565b50565b33610b696107b1565b6001600160a01b03161461044f5760405163118cdaa760e01b81523360048201526024016104d4565b610b9a611342565b5f516020611e735f395f51905f52805460ff191681557f5db9ee0a495bf2e6ff9c91a7834c1ba4fdd244a5e8aa4e537bd38aeae4b073aa335b6040516001600160a01b039091168152602001610526565b306001600160a01b037f0000000000000000000000000000000000000000000000000000000000000000161480610c7157507f00000000000000000000000000000000000000000000000000000000000000006001600160a01b0316610c655f516020611e535f395f51905f52546001600160a01b031690565b6001600160a01b031614155b1561044f5760405163703e46dd60e11b815260040160405180910390fd5b610b5d610b60565b816001600160a01b03166352d1902d6040518163ffffffff1660e01b8152600401602060405180830381865afa925050508015610cf1575060408051601f3d908101601f19168201909252610cee91810190611be2565b60015b610d1957604051634c9c8ce360e01b81526001600160a01b03831660048201526024016104d4565b5f516020611e535f395f51905f528114610d4957604051632a87526960e21b8152600481018290526024016104d4565b610ab48383611371565b306001600160a01b037f0000000000000000000000000000000000000000000000000000000000000000161461044f5760405163703e46dd60e11b815260040160405180910390fd5b5f516020611e735f395f51905f525460ff161561044f5760405163d93c066560e01b815260040160405180910390fd5b5f80826001600160401b03811115610de657610de6611851565b604051908082528060200260200182016040528015610e0f578160200160208202803683370190505b5090505f5b83811015610f49577fa03d9dee3c103bf5ebce82e4c03065d1a35cc8627aa2c930fb7429036c2ad01b858583818110610e4f57610e4f611bf9565b9050602002810190610e619190611c0d565b610e6f906020810190611926565b868684818110610e8157610e81611bf9565b9050602002810190610e939190611c0d565b60200135878785818110610ea957610ea9611bf9565b9050602002810190610ebb9190611c0d565b610ec9906040810190611c2b565b604051610ed7929190611c6d565b604051908190038120610f0e949392916020019384526001600160a01b039290921660208401526040830152606082015260800190565b60405160208183030381529060405280519060200120828281518110610f3657610f36611bf9565b6020908102919091010152600101610e14565b5080604051602001610f5b9190611c7c565b604051602081830303815290604052805190602001209150505b92915050565b5f610f75610f876113c6565b8360405161190160f01b8152600281019290925260228201526042902090565b5f5f5f5f610fb586866113d4565b925092509250610fc5828261141d565b5090949350505050565b5f5b818110156110cf575f546001600160a01b0316638199411385858585818110610ffc57610ffc611bf9565b905060200281019061100e9190611c0d565b61101c906020810190611926565b86868681811061102e5761102e611bf9565b90506020028101906110409190611c0d565b6020013587878781811061105657611056611bf9565b90506020028101906110689190611c0d565b611076906040810190611c2b565b6040518663ffffffff1660e01b8152600401611096959493929190611cb1565b5f604051808303815f87803b1580156110ad575f5ffd5b505af11580156110bf573d5f5f3e3d5ffd5b505060019092019150610fd19050565b506040518181526001600160a01b038416907f0b6cf375e29d3fa425246b4d68720eddc97c8958f44faad7b5f6e4a152c019619060200160405180910390a2505050565b7f9016d09d72d40fdae2fd8ceac6b6234c7706214fd39c1cd1e609a0528c19930080546001600160a01b031981166001600160a01b03848116918217845560405192169182907f8be0079c531659141344cd1fd0a4f28419497f9722a3daafe3b4186f6b6457e0905f90a3505050565b61118b610d9c565b5f516020611e735f395f51905f52805460ff191660011781557f62e78cea01bee320cd4e420270b5ea74000d11b0c9f74754ebdbfc544b05a25833610bd3565b7fa16a46d94261c7517cc8ff89f61c0ce93598e3c849801011dee649a6a557d10280546060917fa16a46d94261c7517cc8ff89f61c0ce93598e3c849801011dee649a6a557d1009161121c90611d01565b80601f016020809104026020016040519081016040528092919081815260200182805461124890611d01565b80156112935780601f1061126a57610100808354040283529160200191611293565b820191905f5260205f20905b81548152906001019060200180831161127657829003601f168201915b505050505091505090565b7fa16a46d94261c7517cc8ff89f61c0ce93598e3c849801011dee649a6a557d10380546060917fa16a46d94261c7517cc8ff89f61c0ce93598e3c849801011dee649a6a557d1009161121c90611d01565b5f807ff0c57e16840df040f15088dc2f81fe391c3923bec73e23a9662efc9c229c6a00610f75565b61131f6114d5565b610b5d816114fa565b61044f6114d5565b6113386114d5565b61046c8282611502565b5f516020611e735f395f51905f525460ff1661044f57604051638dfc202b60e01b815260040160405180910390fd5b61137a8261156b565b6040516001600160a01b038316907fbc7cd75a20ee27fd9adebab32041f755214dbc6bffa90cc0225b39da2e5c2d3b905f90a28051156113be57610ab482826115ce565b61046c61166e565b5f6113cf61168d565b905090565b5f5f5f835160410361140b576020840151604085015160608601515f1a6113fd88828585611700565b955095509550505050611416565b505081515f91506002905b9250925092565b5f82600381111561143057611430611d39565b03611439575050565b600182600381111561144d5761144d611d39565b0361146b5760405163f645eedf60e01b815260040160405180910390fd5b600282600381111561147f5761147f611d39565b036114a05760405163fce698f760e01b8152600481018290526024016104d4565b60038260038111156114b4576114b4611d39565b0361046c576040516335e2f38360e21b8152600481018290526024016104d4565b6114dd6117c8565b61044f57604051631afcd79f60e31b815260040160405180910390fd5b610b2b6114d5565b61150a6114d5565b7fa16a46d94261c7517cc8ff89f61c0ce93598e3c849801011dee649a6a557d1007fa16a46d94261c7517cc8ff89f61c0ce93598e3c849801011dee649a6a557d1026115568482611d98565b50600381016115658382611d98565b50505050565b806001600160a01b03163b5f036115a057604051634c9c8ce360e01b81526001600160a01b03821660048201526024016104d4565b5f516020611e535f395f51905f5280546001600160a01b0319166001600160a01b0392909216919091179055565b60605f6115db84846117e1565b90508080156115fc57505f3d11806115fc57505f846001600160a01b03163b115b15611611576116096117f4565b915050610f75565b801561163b57604051639996b31560e01b81526001600160a01b03851660048201526024016104d4565b3d1561164e5761164961180d565b611667565b60405163d6bda27560e01b815260040160405180910390fd5b5092915050565b341561044f5760405163b398979f60e01b815260040160405180910390fd5b5f7f8b73c3c69bb8fe3d512ecc4cf759cc79239f7b179b0ffacaa9a75d522b39400f6116b7611818565b6116bf61182d565b60408051602081019490945283019190915260608201524660808201523060a082015260c00160405160208183030381529060405280519060200120905090565b5f80807f7fffffffffffffffffffffffffffffff5d576e7357a4501ddfe92f46681b20a084111561173957505f915060039050826117be565b604080515f808252602082018084528a905260ff891692820192909252606081018790526080810186905260019060a0016020604051602081039080840390855afa15801561178a573d5f5f3e3d5ffd5b5050604051601f1901519150506001600160a01b0381166117b557505f9250600191508290506117be565b92505f91508190505b9450945094915050565b5f6117d16112ef565b54600160401b900460ff16919050565b5f5f5f835160208501865af49392505050565b6040513d81523d5f602083013e3d602001810160405290565b6040513d5f823e3d81fd5b5f6118216111cb565b80519060200120905090565b5f61182161129e565b80356001600160a01b038116811461184c575f5ffd5b919050565b634e487b7160e01b5f52604160045260245ffd5b5f5f60408385031215611876575f5ffd5b61187f83611836565b915060208301356001600160401b03811115611899575f5ffd5b8301601f810185136118a9575f5ffd5b80356001600160401b038111156118c2576118c2611851565b604051601f8201601f19908116603f011681016001600160401b03811182821017156118f0576118f0611851565b604052818152828201602001871015611907575f5ffd5b816020840160208301375f602083830101528093505050509250929050565b5f60208284031215611936575f5ffd5b61193f82611836565b9392505050565b5f5f83601f840112611956575f5ffd5b5081356001600160401b0381111561196c575f5ffd5b6020830191508360208260051b8501011115611986575f5ffd5b9250929050565b5f5f5f5f5f5f608087890312156119a2575f5ffd5b6119ab87611836565b955060208701356001600160401b038111156119c5575f5ffd5b6119d189828a01611946565b9096509450506040870135925060608701356001600160401b038111156119f6575f5ffd5b8701601f81018913611a06575f5ffd5b80356001600160401b03811115611a1b575f5ffd5b896020828401011115611a2c575f5ffd5b60208201935080925050509295509295509295565b5f81518084528060208401602086015e5f602082860101526020601f19601f83011685010191505092915050565b60ff60f81b8816815260e060208201525f611a8d60e0830189611a41565b8281036040840152611a9f8189611a41565b606084018890526001600160a01b038716608085015260a0840186905283810360c0850152845180825260208087019350909101905f5b81811015611af4578351835260209384019390920191600101611ad6565b50909b9a5050505050505050505050565b8035801515811461184c575f5ffd5b5f60208284031215611b24575f5ffd5b61193f82611b05565b602081525f61193f6020830184611a41565b5f5f5f60408486031215611b51575f5ffd5b611b5a84611836565b925060208401356001600160401b03811115611b74575f5ffd5b611b8086828701611946565b9497909650939450505050565b5f5f60408385031215611b9e575f5ffd5b611ba783611836565b9150611bb560208401611b05565b90509250929050565b5f60018201611bdb57634e487b7160e01b5f52601160045260245ffd5b5060010190565b5f60208284031215611bf2575f5ffd5b5051919050565b634e487b7160e01b5f52603260045260245ffd5b5f8235605e19833603018112611c21575f5ffd5b9190910192915050565b5f5f8335601e19843603018112611c40575f5ffd5b8301803591506001600160401b03821115611c59575f5ffd5b602001915036819003821315611986575f5ffd5b818382375f9101908152919050565b81515f90829060208501835b82811015611ca6578151845260209384019390910190600101611c88565b509195945050505050565b6001600160a01b03868116825285166020820152604081018490526080606082018190528101829052818360a08301375f81830160a090810191909152601f909201601f19160101949350505050565b600181811c90821680611d1557607f821691505b602082108103611d3357634e487b7160e01b5f52602260045260245ffd5b50919050565b634e487b7160e01b5f52602160045260245ffd5b601f821115610ab457805f5260205f20601f840160051c81016020851015611d725750805b601f840160051c820191505b81811015611d91575f8155600101611d7e565b5050505050565b81516001600160401b03811115611db157611db1611851565b611dc581611dbf8454611d01565b84611d4d565b6020601f821160018114611df7575f8315611de05750848201515b5f19600385901b1c1916600184901b178455611d91565b5f84815260208120601f198516915b82811015611e265787850151825560209485019460019092019101611e06565b5084821015611e4357868401515f19600387901b60f8161c191681555b50505050600190811b0190555056fe360894a13ba1a3210667c828492db98dca3e2076cc3735a920a3ca505d382bbccd5ed15c6e187e77e9aee88184c21f4f2182ab5827cb3b7e07fbedcd63f03300a2646970667358221220121e81dfbbfecdfb7170c1a921bee1fea7220202022665b76d7f40ecf2d2025464736f6c634300081c0033",
  "linkReferences": {},
  "deployedLinkReferences": {}
}